:1000000026C040C03FC03EC03DC034C13BC03AC026
:1000100039C038C037C036C035C034C033C0000026
:10002000000037000000000036000000000038002B
:10003000020202020202020202020102040810206D
:100040002004100801020000040000000000112438
:100050001FBECFE5D2E0DEBFCDBF10E0A0E6B0E02E
:10006000EEE3F6E002C005900D92A436B107D9F791
:1000700020E0A4E6B0E001C01D92A538B207E1F788
:1000800043D1DBC2BDCF823089F018F4813051F00A
:100090000895833019F0843009F008958CB58F7D70
:1000A0008CBD08958AB58F778ABD08958AB58F7DF6
:1000B000FBCF1F93CF93DF93E5E4F0E09491EBE364
:1000C000F0E0D491E1E3F0E0C491CC23B1F0182F3B
:1000D000992311F0892FD7DFEC2FF0E0EE0FFF1FEF
:1000E000E65DFF4FA591B4918FB7F894EC91111193
:1000F00008C0D095DE23DC938FBFDF91CF911F9195
:100100000895DE2BF8CFCF93DF9390E0FC01E65CFF
:10011000FF4F2491805D9F4FFC0184918823D1F093
:1001200090E0880F991FFC01E25EFF4FA591B4910A
:10013000FC01E65DFF4FC591D49161110EC09FB7E0
:10014000F8948C91E22FE0958E238C932881E22302
:10015000E8839FBFDF91CF9108958FB7F894EC911A
:10016000E22BEC938FBFF6CF3FB7F89480916900F4
:1001700090916A00A0916B00B0916C0022B708B614
:1001800001FE05C02F3F19F00196A11DB11D3FBF13
:10019000BA2FA92F982F8827BC01CD01620F711D9E
:1001A000811D911D43E0660F771F881F991F4A9597
:1001B000D1F708958F929F92AF92BF92CF92DF9224
:1001C000EF92FF924B015C01CFDF6B017C01CCDF32
:1001D0006C197D098E099F09683E73408105910560
:1001E000B0F321E0821A9108A108B10888EEC80E88
:1001F00083E0D81EE11CF11C81149104A104B10418
:1002000031F7FF90EF90DF90CF90BF90AF909F902D
:100210008F900895C29AC29BFECF8DE08A95F1F728
:100220000000C0988AE08A95F1F700C0C298C09A91
:10023000779905C083E080936D0080E0089581E0A8
:1002400008958EB98BE29DE09A95F1F700008DB983
:10025000B29BFECF9AE09A95F1F700C08DB9769BDC
:10026000F2CF8DE08A95F1F700008FB19FEF9FB933
:10027000B89A08951F920F920FB60F9211242F93E0
:100280003F938F939F93AF93BF938091650090911D
:100290006600A0916700B09168003091640026E08C
:1002A000230F2D3758F50296A11DB11D2093640030
:1002B0008093650090936600A0936700B0936800F8
:1002C0008091690090916A00A0916B00B0916C00E0
:1002D0000196A11DB11D8093690090936A00A093BF
:1002E0006B00B0936C00BF91AF919F918F913F9144
:1002F0002F910F900FBE0F901F90189529E8230F94
:100300000396A11DB11DD2CF78948AB582608ABDB3
:100310008AB581608ABD83B7826083BF83B78160FD
:1003200083BF89B7826089BF80B7826080BF80B792
:10033000816080BF329A319A3098379A8CB5806448
:100340008CBD61E081E0DFDE80E0B3DE60E089E06B
:10035000DADE60E088E0D7DE64EF71E080E090E014
:1003600029DFECE4F0E08491E2E4F0E0D491E8E30A
:10037000F0E0C491CC2371F0811185DEEC2FF0E028
:10038000EE0FFF1FEC5DFF4FA591B491EC91ED23B3
:1003900081E009F480E080936200C09AC29ABA9A20
:1003A000B89A8FEF8FB98AE28DB980EF8EB9442465
:1003B0004A9443E0542E612C712C55E8C52E50E030
:1003C000D52E60E0A62E60E0B62E70E4872E7FE189
:1003D000972E3AE0332E81E06CDE64E670E080E038
:1003E00090E0E8DE80E065DE64E670E080E090E0CA
:1003F000E1DE68EE73E080E090E0DCDE8091620098
:10040000813009F07DC043E047B9369A3699FECF76
:1004100084B165B1762F682F072E000C880B990BDD
:100420002CE931E340E050E0B1D0A3019201C7D004
:100430002C51334F4F4F5F4F30936100209360003A
:100440008091600090916100292F3327E0E4E093D0
:1004500081008093820020938300992782509F4FD0
:10046000820F931F819580938400FEEBF0936E00C2
:10047000E1E8F0E0C0E0C13138F4CF5FAC2FB0E08C
:10048000A259BF4F80818C933196CE16DF0699F723
:10049000C093800081E080936D0080916E0080FDAC
:1004A00003C083E080936D00B5DE882309F1CF5F40
:1004B000DC2F0EE610E02224239478014FEFE41A9B
:1004C000F40A80916D00837009F44EC0C298F8015F
:1004D00080818FB980EFB5DEB8988EEFB2DE909153
:1004E0006D0080FF14C081E090FF82E080936D007A
:1004F00010928000A114B10409F46DCF81DD69CFA1
:1005000081119ECF909261008092600099CF892FD7
:100510008570843069F480916E00816080936E00F4
:1005200020926D0077DE81112DC030926D00E0CFFA
:100530009E7F90936D008701D15009F0BECF10923D
:100540008000C098C29AB29BFECF4AE04A95F1F76C
:1005500000C0C09A8DE08A95F1F700007599CACF66
:10056000E4E0E0936D00C6CFB89880EF6ADEF80152
:100570008083D13029F4FFEFFFB98EEF62DEDBCF4D
:100580001FB8FBCFDC2F0EE610E0D6CFEE27FF27FB
:10059000AA27BB2708C0A20FB31FE41FF51F220F15
:1005A000331F441F551F969587957795679598F348
:1005B0007040A9F7009799F7BD01CF010895052E66
:1005C00097FB16F400940FD057FD05D014D007FC0C
:1005D00002D046F408C050954095309521953F4F84
:1005E0004F4F5F4F089590958095709561957F4F1F
:1005F0008F4F9F4F0895A1E21A2EAA1BBB1BFD012E
:100600000DC0AA1FBB1FEE1FFF1FA217B307E407F1
:10061000F50720F0A21BB30BE40BF50B661F771F49
:10062000881F991F1A9469F7609570958095909529
:0E0630009B01AC01BD01CF010895F894FFCFEE
:04063E00401F010058
:00000001FF
