:1000000026C040C03FC03EC03DC07EC13BC03AC0DC
:1000100039C038C037C036C035C034C033C0000026
:10002000000037000000000036000000000038002B
:10003000020202020202020202020102040810206D
:100040002004100801020000040000000000112438
:100050001FBECFE5D2E0DEBFCDBF10E0A0E6B0E02E
:10006000E6E7F6E002C005900D92A236B107D9F797
:1000700020E0A2E6B0E001C01D92A338B207E1F78C
:100080008DD1F7C2BDCF823089F018F4813051F0A4
:100090000895833019F0843009F008958CB58F7D70
:1000A0008CBD08958AB58F778ABD08958AB58F7DF6
:1000B000FBCF1F93CF93DF93E5E4F0E09491EBE364
:1000C000F0E0D491E1E3F0E0C491CC23B1F0182F3B
:1000D000992311F0892FD7DFEC2FF0E0EE0FFF1FEF
:1000E000E65DFF4FA591B4918FB7F894EC91111193
:1000F00008C0D095DE23DC938FBFDF91CF911F9195
:100100000895DE2BF8CFCF93DF93E6E4F0E08491FF
:10011000ECE3F0E0D491E2E3F0E0C491CC2399F079
:100120008111B1DFEC2FF0E0EE0FFF1FEC5DFF4F10
:10013000A591B491EC91ED2381E090E009F480E089
:10014000DF91CF91089580E090E0FACFCF93DF93D5
:1001500090E0FC01E65CFF4F2491805D9F4FFC0125
:1001600084918823C9F090E0880F991FFC01E25E1A
:10017000FF4FA591B491FC01E65DFF4FC591D4916D
:1001800061110DC09FB7F8948C91209582238C93B8
:100190008881282328839FBFDF91CF910895623003
:1001A00051F49FB7F8943C91822F809583238C93D0
:1001B000E8812E2BEFCF8FB7F894EC912E2B2C9358
:1001C0008FBFEACF3FB7F8948091670090916800A5
:1001D000A0916900B0916A0022B708B601FE05C07F
:1001E0002F3F19F00196A11DB11D3FBFBA2FA92FB6
:1001F000982F8827BC01CD01620F711D811D911DB3
:1002000043E0660F771F881F991F4A95D1F708951D
:100210008F929F92AF92BF92CF92DF92EF92FF9216
:100220004B015C01CFDF6B017C01CCDF6C197D09D8
:100230008E099F09683E734081059105B0F321E066
:10024000821A9108A108B10888EEC80E83E0D81E72
:10025000E11CF11C81149104A104B10431F7FF9059
:10026000EF90DF90CF90BF90AF909F908F900895C8
:10027000CF93DF93D82FC0E081E01BDF64E670E00E
:1002800080E090E0C5DF80E014DF64E670E080E0AD
:1002900090E0BEDFCF5FDC13EFCF68EE73E080E06D
:1002A00090E0DF91CF91B4CFC29AC29BFECF8DE098
:1002B0008A95F1F70000C0988AE08A95F1F700C0AE
:1002C000C298C09A779905C083E080936B0080E064
:1002D000089581E008958EB98BE29DE09A95F1F73B
:1002E00000008DB9B29BFECF9AE09A95F1F700C05D
:1002F0008DB9769BF2CF8DE08A95F1F700008FB132
:100300009FEF9FB9B89A08951F920F920FB60F9260
:1003100011242F933F938F939F93AF93BF9380911B
:10032000630090916400A0916500B09166003091E7
:10033000620026E0230F2D3758F50296A11DB11D4E
:10034000209362008093630090936400A093650003
:10035000B09366008091670090916800A091690059
:10036000B0916A000196A11DB11D80936700909322
:100370006800A0936900B0936A00BF91AF919F910C
:100380008F913F912F910F900FBE0F901F90189556
:1003900029E8230F0396A11DB11DD2CF78948AB509
:1003A00082608ABD8AB581608ABD83B7826083BF5F
:1003B00083B7816083BF89B7826089BF80B782605D
:1003C00080BF80B7816080BF329A319A3098379A67
:1003D0008CB580648CBD61E081E0B8DE80E069DED0
:1003E00060E089E0B3DE62E082E0B0DEC09AC29AEB
:1003F000BA9AB89A8FEF8FB98AE28DB980EF8EB929
:1004000082DE44244A9443E0542E612C712C53E83C
:10041000C52E50E0D52E60E0A62E60E0B62E70E42A
:10042000872E7FE1972E3AE0332E81E021DF6BDECD
:10043000813009F083C043E047B9369A3699FECF40
:1004400064B185B1782F90E080E02CE931E340E0A1
:1004500050E0B8D0A3019201CED02C51334F4F4F72
:100460005F4F309361002093600080916000909115
:100470006100292F3327E0E4E0937F008093800020
:1004800020938100992782509F4F820F931F81955F
:100490008093820082E0ECDEFEEBF0936C00EFE7ED
:1004A000F0E0C0E0C13138F4CF5FAC2FB0E0A45928
:1004B000BF4F80818C933196CE16DF0699F7C0939B
:1004C0007E0081E080936B0080916C0080FD03C012
:1004D00083E080936B00E8DE882309F1CF5FDC2F97
:1004E0000CE610E02224239478014FEFE41AF40A7A
:1004F00080916B00837009F453C0C298F801808129
:100500008FB980EFE8DEB8988EEFE5DE90916B0052
:1005100080FF19C081E090FF82E080936B00109211
:100520007E0083E0A5DE68EE73E080E090E070DEA0
:10053000A114B10409F479CF63DD75CF9092610005
:100540008092600092CF892F8570843069F4809109
:100550006C00816080936C0020926B00A5DE81119D
:100560002DC030926B00DBCF9E7F90936B00870194
:10057000D15009F0B9CF10927E00C098C29AB29BB8
:10058000FECF4AE04A95F1F700C0C09A8DE08A9507
:10059000F1F700007599C5CFE4E0E0936B00C1CF9F
:1005A000B89880EF98DEF8018083D13029F4FFEF0E
:1005B000FFB98EEF90DEDBCF1FB8FBCFDC2F0CE650
:1005C00010E0D6CFEE27FF27AA27BB2708C0A20F2F
:1005D000B31FE41FF51F220F331F441F551F9695AD
:1005E00087957795679598F37040A9F7009799F7E5
:1005F000BD01CF010895052E97FB16F400940FD08E
:1006000057FD05D014D007FC02D046F408C0509521
:100610004095309521953F4F4F4F5F4F08959095EE
:100620008095709561957F4F8F4F9F4F0895A1E200
:100630001A2EAA1BBB1BFD010DC0AA1FBB1FEE1F5C
:10064000FF1FA217B307E407F50720F0A21BB30BA7
:10065000E40BF50B661F771F881F991F1A9469F723
:1006600060957095809590959B01AC01BD01CF017F
:060670000895F894FFCF8D
:02067600401F23
:00000001FF
