:1000000027C04BC05FC149C048C012C146C045C0EF
:1000100044C043C042C041C040C041C296C100007C
:10002000000038000000000037000000000036002B
:10003000020202020202020202020102040810206D
:100040002004100801020000040000000000570412
:1000500011241FBECFE5D2E0DEBFCDBF10E0A0E689
:10006000B0E0E8E7F9E002C005900D92A236B107D2
:10007000D9F720E0A2E6B0E001C01D92A23AB20793
:10008000E1F710E0C8E2D0E003C02197FE016CD494
:10009000C732D107D1F745D26DC4B2CFECE4F0E05E
:1000A0008491E2E4F0E09491E8E3F0E0E491EE235F
:1000B00021F1882329F08230E9F080F48130B1F019
:1000C000F0E0EE0FFF1FE65DFF4FA591B491EC91BC
:1000D000E92381E090E099F480E00895833011F005
:1000E000843071F78CB58F7D8CBDEACF8AB58F7760
:1000F0008ABDE6CF8AB58F7DFBCF80E090E0089582
:10010000089508953FB7F89480916C0090916D0028
:10011000A0916E00B0916F0022B708B601FE05C035
:100120002F3F19F00196A11DB11D3FBFBA2FA92F76
:10013000982F8827BC01CD01620F711D811D911D73
:1001400043E0660F771F881F991F4A95D1F70895DE
:1001500081E0809362008BB78F7D8BBF109263002C
:100160008FEF8FB98AE28DB980EF8EB9C09AC29AAB
:10017000B89ABA9A08951092720010927100109273
:10018000990010929A001092700010926200809371
:1001900063008FEF8FB987B3856087BBC29AC09A1F
:1001A000B89888EA8DB980EF8EB98BB780628BBF23
:1001B0008AB780628ABFA89A0895C29AC29BFECF6E
:1001C0008DE08A95F1F70000C0988AE08A95F1F7F2
:1001D00000C0C298C09A779905C083E080937700E9
:1001E00080E0089581E008958EB98BE29DE09A95B4
:1001F000F1F700008DB9B29BFECF9AE09A95F1F726
:1002000000C08DB9611108C0749B06C08091630065
:10021000B2DF80E09CE00895769BE8CF8DE08A9580
:10022000F1F700008FB19FEF9FB9B89A90E0089561
:100230001F920F920FB60F9211242F933F938F931B
:100240009F93AF93BF938091680090916900A091B4
:100250006A00B0916B003091670026E0230F2D37C4
:1002600058F50296A11DB11D209367008093680088
:1002700090936900A0936A00B0936B0080916C002A
:1002800090916D00A0916E00B0916F000196A11D3C
:10029000B11D80936C0090936D00A0936E00B0939D
:1002A0006F00BF91AF919F918F913F912F910F90D0
:1002B0000FBE0F901F90189529E8230F0396A11DDC
:1002C000B11DD2CF1F920F920FB60F9211242F9310
:1002D0003F934F935F936F937F938F939F93AF93CE
:1002E000BF93EF93FF93B09B1FC0B29B1DC082E1F1
:1002F0008A95F1F700C0B09B17C0B29B15C0109251
:10030000780080916600882371F0809170008823C6
:1003100041F080917000E0917300F091740090E0E2
:10032000099510926600759AFF91EF91BF91AF9178
:100330009F918F917F916F915F914F913F912F91FD
:100340000F900FBE0F901F9018951F920F920FB62F
:100350000F9211242F933F934F935F936F937F934B
:100360008F939F93AF93BF93EF93FF93809164001C
:10037000909165008230910509F47FC0B0F4009738
:1003800051F1019709F45CC0FF91EF91BF91AF91DA
:100390009F918F917F916F915F914F913F912F919D
:1003A0000F900FBE0F901F9018958430910509F49F
:1003B0006EC0D0F1059741F7809171008F5F8F710A
:1003C00080937100809171008FB1809170008F5F78
:1003D0008093700022C08FB1882361F08FB190E0CC
:1003E00095958795209163002817190619F088EADA
:1003F0008DB940C0789B0EC081E090E0909365007D
:1004000080936400E0917500F091760009951FB823
:10041000B89A3BC081E08093660084E090E09093BE
:10042000650080936400F3CF8FB1882349F088EA98
:100430008DB980E78EB91092990010929A00A4CFDE
:1004400090919A0080919900981789F28091990073
:100450008F5F8F7180939900E0919900F0E0E758E9
:10046000FF4F80818FB982E090E090936500809388
:100470006400B89A80E78EB987CF83E090E09093CC
:10048000650080936400B8981FB88EE7F4CF85E0CC
:1004900090E09093650080936400B898EBCF1F9232
:1004A0000F920FB60F9211242F933F934F935F93A8
:1004B0006F937F938F939F93AF93BF93EF93FF932C
:1004C00081E080937800B898B29B02C0B09BFCCFCB
:1004D000B09910C088EF8DB980916600882351F0E3
:1004E00080917000E0917300F091740090E00995A4
:1004F0001092660080EF8EB9109265001092640031
:10050000FF91EF91BF91AF919F918F917F916F91EB
:100510005F914F913F912F910F900FBE0F901F90C1
:100520001895CF93DF93CDB7DEB7A0970FB6F894A9
:10053000DEBF0FBECDBF78948AB582608ABD8AB512
:1005400081608ABD83B7826083BF83B7816083BFC8
:1005500089B7826089BF80B7826080BF80B78160C1
:1005600080BF329A319A3098379A8CB580648CBDAE
:1005700081E080939B0080E890E0909376008093E8
:10058000750081E890E09093740080937300E0DD43
:10059000E3E4F0E02491E9E3F0E084918823C9F0FA
:1005A00090E0880F991FFC01EC5DFF4F459154913D
:1005B000FC01E25EFF4FA591B4919FB7F894FA0158
:1005C00080812095822380838C91E22FE823EC9315
:1005D0009FBFE2E4F0E02491E8E3F0E08491882317
:1005E000C9F090E0880F991FFC01EC5DFF4F459129
:1005F0005491FC01E25EFF4FA591B4919FB7F8942E
:10060000FA013081822F809583238083EC91E22B45
:10061000EC939FBF43DD88248A9433E0932EA12C72
:10062000B12C40E8242E40E0342E38DD20E43FE1B8
:100630008130B9F4F3E0F7B9369A3699FECF84B138
:1006400065B1762F682F90E080E02CE931E340E03F
:1006500050E033D1A501940149D12C51334F4F4F74
:100660005F4F309361002093600080916000909113
:100670006100292F332740E440939E0080939F0020
:100680002093A000992782509F4F820F931F81953E
:100690008093A10010927200109271001092990044
:1006A00010929A001092700080919A008F5F8F7163
:1006B00080939A00E0919A00F0E0E758FF4F8EEBAC
:1006C000808390919B00EEE9F0E0219180919A0067
:1006D0008F5F8F7140919900841739F0A82FB0E097
:1006E000A758BF4F2C9380939A0080E0E23AF80716
:1006F00061F7911104C081E080939C0029DD612C99
:1007000090919A00809199009817A9F08091990092
:100710008F5F8F7180939900E0919900A1E0B0E024
:10072000AC0FBD1FA60DB11DF0E0E758FF4F808153
:100730008C936394E5CF80917800882321F08BE03F
:100740008093770025C081E080937700898180FDC8
:1007500003C083E08093770030DD8823C9F0762CD6
:100760008E010F5F1F4F80917700837009F488C05E
:10077000C29868019FEFC91AD90AF80180818FB920
:1007800060E080EF31DD992309F441C09093770058
:1007900080919C00882389F010929C0080919D009C
:1007A00010929B003092760020927500E1E8F0E014
:1007B000F0937400E0937300DEDCA4DC6B017C0139
:1007C00088EE482E83E0582E612C712C9BDC6C192E
:1007D0007D098E099F09683E734081059105B0F33C
:1007E000F1E04F1A51086108710828EEC20E23E0AB
:1007F000D21EE11CF11C411451046104710431F753
:1008000080E090E0892B09F410CFFADB0ECFB89886
:1008100061E08EEFE9DC9091770080FF05C081E018
:1008200090FD8ECF82E08CCF892F8570843059F473
:1008300089818160898381E080937700BEDC8111AA
:1008400007C08AE07DCF9E7F90937700860104C029
:10085000762C8E010F5F1F4F7A94711084CFC09851
:10086000C29AB29BFECF3AE03A95F1F700C0C09A27
:100870004DE04A95F1F7000075998ACF84E060CF8A
:10088000B89860E080EFB0DC911180CF6801FFEF95
:10089000CF1ADF0AF8018083F1E07F1206C02FEF44
:1008A0002FB961E08EEFA0DCD1CF1FB8FACFEBE912
:1008B000F0E01082118212820895EE27FF27AA2706
:1008C000BB2708C0A20FB31FE41FF51F220F331F61
:1008D000441F551F969587957795679598F37040B7
:1008E000A9F7009799F7BD01CF010895052E97FB51
:1008F00016F400940FD057FD05D014D007FC02D099
:1009000046F408C050954095309521953F4F4F4F84
:100910005F4F089590958095709561957F4F8F4FAB
:100920009F4F0895A1E21A2EAA1BBB1BFD010DC00B
:10093000AA1FBB1FEE1FFF1FA217B307E407F5078F
:1009400020F0A21BB30BE40BF50B661F771F881F6B
:10095000991F1A9469F760957095809590959B0101
:10096000AC01BD01CF010895EE0FFF1F0590F4917A
:08097000E02D0994F894FFCF7B
:02097800401F1E
:00000001FF
